:020000040800F2
:1000000000500020D9B300083DA6000849A600080A
:100010004FA6000855A600085BA6000800000000D7
:1000200000000000000000000000000061A60008C1
:100030006DA600080000000079A6000885A600084B
:1000400021B4000821B4000821B4000821B400083C
:1000500021B4000821B4000821B4000821B400082C
:1000600021B4000821B4000821B4000821B400081C
:1000700021B4000821B4000895A60008A9A600082C
:1000800021B4000821B4000821B4000821B40008FC
:1000900021B4000821B4000821B4000821B40008EC
:1000A00021B40008BDA6000821B4000821B400084E
:1000B00021B4000821B4000821B4000821B40008CC
:1000C00021B4000821B4000821B4000821B40008BC
:1000D00021B4000805A7000821B4000821B40008D5
:1000E00021B4000821B4000821B400080000000079
:1000F0000000000000000000000000000000000000
:0C01000000000000000000005FF808F1A3
:10010C0010B5054C237833B9044B13B10448AFF345
:10011C0000800123237010BD480600200000000061
:10012C0048B7000808B5034B1BB103490348AFF3AC
:10013C00008008BD000000004C06002048B70008F5
:10014C00154B002B08BF134B9D46A3F5803A00219D
:10015C008B460F461348144A121A0BF091F90F4BA9
:10016C00002B00D098470E4B002B00D09847002056
:10017C00002104000D000D48002802D00C480BF0A3
:10018C0047FA0BF059F9200029000AF073F90BF02B
:10019C0043F900BF00000800000000000000000050
:1001AC000000000048060020180900201DB60008B9
:1001BC0029B6000880B500AF084B1B68074A43F00E
:1001CC0010031360032000F03BFB002000F02CF820
:1001DC000AF0D0F90023184680BD00BF0020024071
:1001EC0080B500AF094B4FF0FF32DA60074B0022AD
:1001FC001A61064B4FF0FF32DA60044B0022DA60D2
:10020C0000F00CF80023184680BD00BF001002401F
:10021C0080B400AF00BFBD4680BC704780B400AF57
:10022C0000BFBD4680BC704780B582B000AF78601F
:10023C00124B1A68124B1B7819464FF47A73B3FBA6
:10024C00F1F3B2FBF3F3184600F043FB0346002B2B
:10025C0001D001230EE07B680F2B0AD800227968AD
:10026C004FF0FF3000F0F7FA064A7B68136000236A
:10027C0000E0012318460837BD4680BD0C00002065
:10028C00080000200400002080B400AF054B1B7850
:10029C001A46054B1B681344034A136000BFBD4646
:1002AC0080BC7047080000208407002080B400AF99
:1002BC00024B1B681846BD4680BC70478407002063
:1002CC0080B400AF024B1B681846BD4680BC70471B
:1002DC000400002080B584B000AF0346FB710023FE
:1002EC00FB730A4B1B78FA799A4209D0074AFB79BF
:1002FC001370074B1B681846FFF796FF0346FB73FA
:10030C00FB7B18461037BD4680BD00BF080000209F
:10031C000400002080B400AF024B1B781846BD4689
:10032C0080BC70470800002080B584B000AF7860B6
:10033C00FFF7BCFFB8607B68FB60FB68B3F1FF3F65
:10034C0005D0094B1B781A46FB681344FB6000BFB1
:10035C00FFF7ACFF0246BB68D31AFA689A42F7D88B
:10036C0000BF1037BD4680BD0800002080B400AF30
:10037C00044B1B68034A23F00203136000BFBD4605
:10038C0080BC704710E000E080B400AF044B1B68E9
:10039C00034A43F00203136000BFBD4680BC7047A4
:1003AC0010E000E080B400AF024B1846BD4680BCA4
:1003BC00704700BF0002010180B400AF034B1B6803
:1003CC001B0C1846BD4680BC704700BF002004E0E3
:1003DC0080B400AF034B1B68C3F30B031846BD4638
:1003EC0080BC7047002004E080B400AF044B5B6815
:1003FC00034A43F00103536000BFBD4680BC704705
:10040C00002004E080B400AF044B5B68034A23F087
:10041C000103536000BFBD4680BC7047002004E060
:10042C0080B400AF044B5B68034A43F00203536093
:10043C0000BFBD4680BC7047002004E080B400AF14
:10044C00044B5B68034A23F00203536000BFBD46B4
:10045C0080BC7047002004E080B400AF044B5B68A4
:10046C00034A43F00403536000BFBD4680BC704791
:10047C00002004E080B400AF044B5B68034A23F017
:10048C000403536000BFBD4680BC7047002004E0ED
:10049C0080B483B000AF7860094B1A687B681A602F
:1004AC00084A7B68043312681A60074A7B68083371
:1004BC0012681A6000BF0C37BD4680BC704700BF85
:1004CC00E8F7FF1FECF7FF1FF0F7FF1F80B485B0B4
:1004DC0000AF78607B6803F00703FB600C4BDB68B4
:1004EC00BB60BA684FF6FF031340BB60FB681A028F
:1004FC00BB68134343F0BF6343F40033BB60044A4F
:10050C00BB68D36000BF1437BD4680BC704700BFCA
:10051C0000ED00E080B400AF044BDB681B0A03F075
:10052C0007031846BD4680BC704700BF00ED00E0D5
:10053C0080B483B000AF0346FB71FB7903F01F025C
:10054C00064997F907305B09012000FA02F241F8DD
:10055C00232000BF0C37BD4680BC704700E100E093
:10056C0080B483B000AF0346FB71FB7903F01F022C
:10057C00074997F907305B09012000FA02F2203392
:10058C0041F8232000BF0C37BD4680BC704700BF2C
:10059C0000E100E080B483B000AF0346FB71094A70
:1005AC0097F907305B09403352F82320FB7903F0AD
:1005BC001F0322FA03F303F0010318460C37BD4660
:1005CC0080BC704700E100E080B483B000AF03460C
:1005DC00FB71FB7903F01F02074997F907305B09A0
:1005EC00012000FA02F2403341F8232000BF0C37FF
:1005FC00BD4680BC704700BF00E100E080B483B012
:10060C0000AF0346FB71FB7903F01F02074997F912
:10061C0007305B09012000FA02F2603341F8232015
:10062C0000BF0C37BD4680BC704700BF00E100E046
:10063C0080B483B000AF0346FB71094A97F90730C9
:10064C005B09803352F82320FB7903F01F0322FA55
:10065C0003F303F0010318460C37BD4680BC70470A
:10066C0000E100E080B483B000AF03463960FB7159
:10067C0097F90730002B0BDA3B68DAB20C49FB799F
:10068C0003F00F03043B1201D2B20B441A7609E0BB
:10069C003B68DAB2074997F907301201D2B20B4422
:1006AC0083F8002300BF0C37BD4680BC704700BFE9
:1006BC0000ED00E000E100E080B483B000AF034641
:1006CC00FB7197F90730002B0ADA0C4AFB7903F01F
:1006DC000F03043B13441B7EDBB21B09DBB208E0A7
:1006EC00074A97F90730134493F80033DBB21B0920
:1006FC00DBB218460C37BD4680BC704700ED00E0FD
:10070C0000E100E080B489B000AFF860B9607A60B5
:10071C00FB6803F00703FB61FB69C3F10703042BC0
:10072C0028BF0423BB61FB690433062B02D9FB6988
:10073C00033B00E000237B614FF0FF32BB6902FA00
:10074C0003F3DA43BB681A407B699A404FF0FF31E0
:10075C007B6901FA03F3D9437B680B4013431846BA
:10076C002437BD4680BC704780B489B000AFF860B8
:10077C00B9607A603B60BB6803F00703FB61FB69FF
:10078C00C3F10703042B28BF0423BB61FB690433AB
:10079C00062B02D9FB69033B00E000237B61FA685E
:1007AC007B69DA404FF0FF31BB6901FA03F3DB439D
:1007BC001A407B681A604FF0FF327B6902FA03F330
:1007CC00DA43FB681A403B681A6000BF2437BD4609
:1007DC0080BC704780B400AFBFF34F8F054BDB6814
:1007EC0003F4E0620349044B1343CB60BFF34F8F18
:1007FC0000BFFDE700ED00E00400FA0580B582B013
:10080C0000AF78607B68013BB3F1807F01D301239B
:10081C000FE00A4A7B68013B53600F214FF0FF3019
:10082C00FFF720FF054B00229A60044B07221A6049
:10083C00002318460837BD4680BD00BF10E000E01D
:10084C0080B582B000AF78607868FFF73FFE00BFDC
:10085C000837BD4680BD80B586B000AF0346B96091
:10086C007A60FB7300237B61FFF754FE78617A6832
:10087C00B9687869FFF746FF024697F90F301146C1
:10088C001846FFF7EFFE00BF1837BD4680BD80B598
:10089C0082B000AF0346FB7197F907301846FFF79B
:1008AC0047FE00BF0837BD4680BD80B582B000AFA3
:1008BC000346FB7197F907301846FFF751FE00BF4E
:1008CC000837BD4680BD80B500AFFFF783FF00BF82
:1008DC0080BD80B582B000AF78607868FFF78EFF7E
:1008EC00034618460837BD4680BD80B500AFFFF7FC
:1008FC0011FE0346184680BD80B584B000AFB960C8
:10090C007A603B600346FB7397F90F301846FFF78C
:10091C00D3FE3B687A68B968FFF726FF00BF103733
:10092C00BD4680BD80B582B000AF0346FB7197F920
:10093C0007301846FFF748FE00BF0837BD4680BD9C
:10094C0080B582B000AF0346FB7197F907301846AB
:10095C00FFF720FE034618460837BD4680BD80B51C
:10096C0082B000AF0346FB7197F907301846FFF7CA
:10097C0045FE00BF0837BD4680BD80B582B000AFD4
:10098C000346FB7197F907301846FFF751FE0346F3
:10099C0018460837BD4680BD80B483B000AF786080
:1009AC007B68042B06D1094B1B68084A43F00403EF
:1009BC00136005E0054B1B68044A23F00403136025
:1009CC0000BF0C37BD4680BC704700BF10E000E094
:1009DC0080B500AF00F002F800BF80BD80B400AF5E
:1009EC0000BFBD4680BC704780B485B000AF786056
:1009FC000023FB607B68002B01D101234FE07B6857
:100A0C001B681A46284B1344284AA2FB03231B09D4
:100A1C009A007B681A647B68254ADA637B68022239
:100A2C0083F821207B681B681B68FB60FB6823F440
:100A3C007F5323F03003FB607B685A687B689B68AC
:100A4C001A437B68DB681A437B681B691A437B6813
:100A5C005B691A437B689B691A437B68DB691343A8
:100A6C00FA681343FB607B681B68FA681A607B6842
:100A7C0000229A627B680022DA627B6800221A6389
:100A8C007B6800225A637B6800229A637B68012290
:100A9C0083F821207B68002283F82020002318464D
:100AAC001437BD4680BC7047F8FFFDBFCDCCCCCC15
:100ABC000000024080B483B000AF78607B68002BEC
:100ACC0001D101233AE07B681B681A687B681B68BC
:100ADC0022F001021A607B681B6800221A607B6896
:100AEC001B6800225A607B681B6800229A607B6836
:100AFC001B680022DA607B681B681A46124B134491
:100B0C00124AA2FB03231B099A007B681A647B68B8
:100B1C000F4ADA637B681A6C7B68DB6B012101FA84
:100B2C0002F25A607B6800229A637B68002283F889
:100B3C0021207B68002283F82020002318460C37E4
:100B4C00BD4680BC704700BFF8FFFDBFCDCCCCCC00
:100B5C000000024080B586B000AFF860B9607A60E2
:100B6C003B600023FB75FB6893F82030012B01D10F
:100B7C0002232DE0FB68012283F82020FB6893F808
:100B8C002130012B1DD1FB68022283F82120FB6848
:100B9C0000229A63FB681B681A68FB681B6822F0CA
:100BAC0001021A603B687A68B968F86800F056FC74
:100BBC00FB681B681A68FB681B6842F001021A602C
:100BCC0005E0FB68002283F820200223FB75FB7DE7
:100BDC0018461837BD4680BD80B586B000AFF860AA
:100BEC00B9607A603B600023FB75FB6893F820309A
:100BFC00012B01D102234AE0FB68012283F820205B
:100C0C00FB6893F82130012B3AD1FB68022283F860
:100C1C002120FB6800229A63FB681B681A68FB683A
:100C2C001B6822F001021A603B687A68B968F868A0
:100C3C0000F014FCFB68DB6A002B08D0FB681B6817
:100C4C001A68FB681B6842F00E021A600FE0FB6822
:100C5C001B681A68FB681B6822F004021A60FB68A8
:100C6C001B681A68FB681B6842F00A021A60FB6872
:100C7C001B681A68FB681B6842F001021A6005E0E9
:100C8C00FB68002283F820200223FB75FB7D1846AD
:100C9C001837BD4680BD80B485B000AF78600023A6
:100CAC00FB737B681B681A687B681B6822F00E025A
:100CBC001A607B681B681A687B681B6822F001024B
:100CCC001A607B681A6C7B68DB6B012101FA02F2FB
:100CDC005A607B68012283F821207B68002283F80C
:100CEC002020FB7B18461437BD4680BC704780B56E
:100CFC0084B000AF78600023FB737B6893F82130DD
:100D0C00022B05D07B6804229A630123FB7351E00C
:100D1C007B681B681A687B681B6822F00E021A60DD
:100D2C007B681B681A687B681B6822F001021A60DA
:100D3C007B681B68224A934229D07B681B68214A36
:100D4C00934222D07B681B681F4A93421AD07B685F
:100D5C001B681E4A934212D07B681B681C4A934244
:100D6C000AD07B681B681B4A934202D14FF4801354
:100D7C000EE04FF080730BE04FF4803308E04FF43B
:100D8C00805305E04FF4807302E0102300E0012350
:100D9C00114A53607B68012283F821207B68002272
:100DAC0083F820207B685B6B002B03D07B685B6B2C
:100DBC0078689847FB7B18461037BD4680BD00BF4E
:100DCC00080002401C000240300002404400024077
:100DDC00580002406C0002400000024080B586B012
:100DEC0000AFF860B9607A6000233B61FB6893F850
:100DFC002130022B08D0FB6804229A63FB68002286
:100E0C0083F82020012368E1FB681B681B6803F052
:100E1C002003002B05D0FB684FF480729A630123EA
:100E2C005BE1BB68002B31D1FB681B689D4A934288
:100E3C0029D0FB681B689C4A934222D0FB681B6834
:100E4C009A4A93421AD0FB681B68994A934212D073
:100E5C00FB681B68974A93420AD0FB681B68964A4A
:100E6C00934202D14FF400130EE04FF000730BE0ED
:100E7C004FF4003308E04FF4005305E04FF40073D7
:100E8C0002E0202300E002237B6130E0FB681B685A
:100E9C00844A934229D0FB681B68834A934222D030
:100EAC00FB681B68814A93421AD0FB681B68804A16
:100EBC00934212D0FB681B687E4A93420AD0FB68AF
:100ECC001B687D4A934202D14FF480030EE04FF031
:100EDC0080630BE04FF4802308E04FF4804305E07F
:100EEC004FF4806302E0402300E004237B61FFF7B2
:100EFC00DDF938616BE0714B1A68FB681B68694956
:100F0C008B4229D0FB681B6867498B4222D0FB6857
:100F1C001B6866498B421AD0FB681B6864498B427C
:100F2C0012D0FB681B6863498B420AD0FB681B68B4
:100F3C0061498B4202D14FF400030EE04FF0006385
:100F4C000BE04FF4002308E04FF4004305E04FF4AE
:100F5C00006302E0802300E008231340002B17D02D
:100F6C00FB681A6CFB68DB6B012101FA02F25A6018
:100F7C00FB689B6B43F00102FB689A63FB680122E0
:100F8C0083F82120FB68002283F820200123A4E0B1
:100F9C007B68B3F1FF3F1AD07B68002B07D0FFF7BB
:100FAC0085F902463B69D31A7A689A420FD2FB68DC
:100FBC009B6B43F02002FB689A63FB68012283F869
:100FCC002120FB68002283F82020012385E03B4B85
:100FDC001A687B691340002B8DD0BB68002B36D16F
:100FEC00FB681B682F4A934229D0FB681B682E4A6A
:100FFC00934222D0FB681B682C4A93421AD0FB68A0
:10100C001B682B4A934212D0FB681B68294A9342F7
:10101C000AD0FB681B68284A934202D14FF4001394
:10102C000EE04FF000730BE04FF4003308E04FF488
:10103C00005305E04FF4007302E0202300E002238C
:10104C001E4A5360FB68012283F8212040E0FB68B4
:10105C001B68144A934238D0FB681B68124A9342AF
:10106C0031D0FB681B68114A934229D0FB681B687E
:10107C000F4A934212D0FB681B680E4A93420AD067
:10108C00FB681B680C4A934202D14FF480031DE0AD
:10109C004FF080631AE04FF4802317E04FF4804345
:1010AC0014E000BF080002401C0002403000024067
:1010BC0044000240580002406C0002400000024014
:1010CC004FF4806302E0402300E00423054A5360A0
:1010DC00FB68002283F82020002318461837BD46F1
:1010EC0080BD00BF0000024080B584B000AF7860C6
:1010FC007B68DB6B1B68FB607B681B681B68BB60D9
:10110C007B681B6C04229A40FB681340002B4FD069
:10111C00BB6803F00403002B4AD07B681B681B6878
:10112C0003F02003002B07D17B681B681A687B68CF
:10113C001B6822F004021A607B681B68664A9342A3
:10114C0029D07B681B68654A934222D07B681B6858
:10115C00634A93421AD07B681B68624A934212D04E
:10116C007B681B68604A93420AD07B681B685F4AA5
:10117C00934202D14FF480030EE04FF080630BE0FA
:10118C004FF4802308E04FF4804305E04FF4806374
:10119C0002E0402300E00423554A53607B68DB6A7D
:1011AC00002B00F094807B68DB6A786898478EE0AF
:1011BC007B681B6C02229A40FB681340002B56D0B4
:1011CC00BB6803F00203002B51D07B681B681B68C3
:1011DC0003F02003002B0BD17B681B681A687B681B
:1011EC001B6822F00A021A607B68012283F8212016
:1011FC007B681B68384A934229D07B681B68374A46
:10120C00934222D07B681B68354A93421AD07B6884
:10121C001B68344A934212D07B681B68324A934253
:10122C000AD07B681B68314A934202D14FF40013F9
:10123C000EE04FF000730BE04FF4003308E04FF476
:10124C00005305E04FF4007302E0202300E002237A
:10125C00274A53607B68002283F820207B689B6AB6
:10126C00002B34D07B689B6A786898472FE07B68AA
:10127C001B6C08229A40FB681340002B28D0BB68DB
:10128C0003F00803002B23D07B681B681A687B686B
:10129C001B6822F00E021A607B681A6C7B68DB6B91
:1012AC00012101FA02F25A607B6801229A637B6881
:1012BC00012283F821207B68002283F820207B68A0
:1012CC001B6B002B04D07B681B6B7868984700BFA6
:1012DC0000BF1037BD4680BD080002401C00024014
:1012EC003000024044000240580002406C000240B2
:1012FC000000024080B487B000AFF8600B467A6003
:10130C00FB720023FB75FB6893F82030012B01D195
:10131C00022332E0FB68012283F82020FB6893F85B
:10132C002130012B22D1FB7A032B1BD801A252F8BE
:10133C0023F000BF51130008591300086113000873
:10134C0069130008FB687A689A6211E0FB687A6896
:10135C00DA620DE0FB687A681A6309E0FB687A6868
:10136C005A6305E00123FB7500BF01E00123FB7507
:10137C00FB68002283F82020FB7D18461C37BD46F5
:10138C0080BC704780B485B000AF78600B46FB70B2
:10139C000023FB737B6893F82030012B01D10223CF
:1013AC0040E07B68012283F820207B6893F8213091
:1013BC00012B30D1FB78042B29D801A252F823F051
:1013CC00E1130008E9130008F1130008F9130008F1
:1013DC00011400087B6800229A621EE07B680022E0
:1013EC00DA621AE07B6800221A6316E07B6800223E
:1013FC005A6312E07B6800229A627B680022DA62F0
:10140C007B6800221A637B6800225A6305E0012383
:10141C00FB7300BF01E00123FB737B68002283F8A0
:10142C002020FB7B18461437BD4680BC704780B427
:10143C0083B000AF78607B6893F8213018460C3786
:10144C00BD4680BC704780B483B000AF78607B68C9
:10145C009B6B18460C37BD4680BC704780B485B07A
:10146C0000AFF860B9607A603B60FB681A6CFB688F
:10147C00DB6B012101FA02F25A60FB681B683A68C7
:10148C005A60FB685B68102B08D1FB681B687A6894
:10149C009A60FB681B68BA68DA6007E0FB681B6837
:1014AC00BA689A60FB681B687A68DA6000BF143708
:1014BC00BD4680BC704700BFF0B587B000AFF86088
:1014CC00B960C7E900230123FB750023BB7500231A
:1014DC007B752F4B1B7E012B01D1022354E02C4B2F
:1014EC0001221A764CF2503000F024FA0346FB75B8
:1014FC00FB7D002B44D1FB68012B02D101237B75B2
:10150C0007E0FB68022B02D102237B7501E0042368
:10151C007B750023BB752DE0BB7D5A00BB6802EBCD
:10152C00030CBB7D1901D7E90023C1F12006A1F101
:10153C00200022FA01F403FA06F6344323FA00F0F1
:10154C00044323FA01F5A3B21946604600F0D6F91C
:10155C004CF2503000F0EEF90346FB750D4B1B6955
:10156C000C4A23F001031361FB7D002B07D1BB7DDB
:10157C000133BB75BA7D7B7D9A42CDD300E000BFB1
:10158C00034B00221A76FB7D18461C37BD46F0BD76
:10159C00880700200020024090B587B000AFF860AB
:1015AC00B960C7E900230023FB751D4B1B7E012B83
:1015BC0001D1022330E01A4B01221A76194B1B6918
:1015CC00184A43F4A0531361154ABB689360144A3C
:1015DC00D7E90034C2E90434FB68012B06D1104B67
:1015EC0003221A700E4B01225A600FE0FB68022B8B
:1015FC0006D10B4B04221A70094B02225A6005E0EB
:10160C00074B05221A70064B04225A603B88194678
:10161C00B86800F073F9FB7D18461C37BD4690BDC9
:10162C00880700200020024090B583B000AF002353
:10163C007B606E4BDB6803F01003002B05D16B4B0A
:10164C00DB6803F00403002B0ED0694B9B687B60B6
:10165C00674B4FF0FF329A6000F0B2F9786800F0F7
:10166C00D2F8634B00221A70604BDB6803F0200346
:10167C00002B00F0A2805D4B2022DA605C4B1B78C3
:10168C00DBB2002B00F09980594B1B78DBB2012B9D
:10169C002DD1574B5B68013B554A5360544B5B68EB
:1016AC00002B17D0524B9B687B60786800F0A2F837
:1016BC004F4B9B6803F580637B604D4A7B6893605E
:1016CC004A4B1B69494A23F002031361786800F006
:1016DC00BFFD72E04FF0FF337B60454A7B6893603F
:1016EC00434B00221A70786800F084F865E0404B98
:1016FC001B78DBB2022B0CD13C4B1B693B4A23F011
:10170C0004031361002000F075F8394B00221A70A5
:10171C0053E0374B5B68013B354A5360344B5B6895
:10172C00002B26D0324B9B680233314A9360304BEE
:10173C009B687B602E4BD3E904124FF000034FF0F3
:10174C0000040B0C43EA0243140C294AC2E904348A
:10175C00264B1B69254A23F001031361244B03F12B
:10176C001004D4E900349BB21946786800F0C6F82E
:10177C0023E01F4B1B78DBB2032B05D11C4B9B6862
:10178C00184600F037F811E0194B1B78DBB2042B2C
:10179C0006D1174B9B68023B184600F02BF805E06E
:1017AC00134B9B68063B184600F024F8104B4FF087
:1017BC00FF329A600E4B00221A700D4B1B78DBB275
:1017CC00002B0ED1094B1B69084A23F00703136148
:1017DC00064B1B69054A23F4A0531361044B0022EA
:1017EC001A7600BF0C37BD4690BD00BF00200240EA
:1017FC008807002080B483B000AF786000BF0C373E
:10180C00BD4680BC704780B483B000AF786000BF29
:10181C000C37BD4680BC704780B483B000AF00234A
:10182C00FB710D4B1B6903F08003002B0DD00A4B91
:10183C000A4A5A60084B0A4A5A60074B1B6903F064
:10184C008003002B01D00123FB71FB7918460C3768
:10185C00BD4680BC704700BF002002402301674595
:10186C00AB89EFCD80B400AF054B1B69044A43F044
:10187C008003136100231846BD4680BC704700BF2F
:10188C000020024080B400AF094B1B6903F40073C5
:10189C00002B07D1064B074A9A60054B064A9A6003
:1018AC00002300E001231846BD4680BC704700BFF2
:1018BC000020024023016745AB89EFCD80B400AF17
:1018CC00054B1B69044A23F400731361002318466B
:1018DC00BD4680BC704700BF0020024080B500AF01
:1018EC00FEF7F1FF00BF80BD80B400AF024BDB6997
:1018FC001846BD4680BC70478807002080B483B072
:10190C0000AF78600B467B80084B0022DA61084BF5
:10191C001B69074A43F0010313617B687A881A80BC
:10192C0000BF0C37BD4680BC704700BF8807002045
:10193C000020024080B584B000AF7860FEF7B6FCA2
:10194C00F86010E07B68B3F1FF3F0CD07B68002B94
:10195C0007D0FEF7ABFC0246FB68D31A7A689A42B2
:10196C0001D2032325E0154BDB6803F00103002BA8
:10197C00E8D1124BDB6803F02003002B02D00F4B95
:10198C002022DA600D4BDB6803F01003002B0BD127
:10199C000A4BDB6903F00103002B05D1074BDB6815
:1019AC0003F00403002B03D000F00AF8012300E03D
:1019BC00002318461037BD4680BD00BF00200240F2
:1019CC0080B483B000AF00237B60234BDB6803F053
:1019DC001003002B09D0214BDB6943F002031F4A93
:1019EC00D3617B6843F010037B601B4BDB6803F017
:1019FC000403002B09D0194BDB6943F00103174A90
:101A0C00D3617B6843F004037B60134BDB6903F009
:101A1C000103002B0BD0114BDB6943F004030F4A7D
:101A2C00D3610D4BDB690C4A23F00103D3617B6856
:101A3C0040F20112934206D1074BDB69064A23F0B0
:101A4C000103D36102E0044A7B68D36000BF0C370A
:101A5C00BD4680BC704700BF0020024088070020B4
:101A6C0080B584B000AF786039600123FB7300232C
:101A7C00BB602F4B1B7E012B01D1022353E02C4B5F
:101A8C0001221A767B681B68022B16D14CF250305F
:101A9C00FFF750FF0346002B41D1012000F088F9DD
:101AAC004CF25030FFF746FF0346FB73214B1B698A
:101ABC00204A23F00403136131E04CF25030FFF75D
:101ACC0039FF0346002B2AD13B684FF0FF321A60D6
:101ADC007B689B68BB6019E0B86800F0B9FB4CF2FE
:101AEC005030FFF727FF0346FB73124B1B69114A5B
:101AFC0023F002031361FB7B002B03D03B68BA6815
:101B0C001A600CE0BB6803F58063BB607B68DB6824
:101B1C009A027B689B681344BA689A42DCD3044BE4
:101B2C0000221A76FB7B18461037BD4680BD00BFDD
:101B3C00880700200020024080B584B000AF786098
:101B4C000023FB731B4B1B7E012B01D102232DE0C9
:101B5C00184B01221A76174B1B78DBB2002B01D0E5
:101B6C00012323E0144B1B69134A43F4A053136164
:101B7C007B681B68022B08D10E4B02221A707B6803
:101B8C005B68184600F014F90FE00A4B01221A703A
:101B9C007B68DB68074A53607B689B68054A9360E7
:101BAC007B689B68184600F053FBFB7B184610378C
:101BBC00BD4680BD880700200020024080B582B061
:101BCC0000AFA523BB710123FB7100F015FB03468D
:101BDC00BB714CF25030FFF7ADFE0346FB71FB7945
:101BEC00002B23D1144B0022DA61144B1B69134ACE
:101BFC0043F020031361114B1B69104A43F040035F
:101C0C0013614CF25030FFF795FE0346FB710B4B02
:101C1C001B690A4A23F020031361FB79002B05D1C1
:101C2C00BB79184600F022FA0346FB71FB79184683
:101C3C000837BD4680BD00BF880700200020024049
:101C4C0080B584B000AF78600123FB73394B1B7EE9
:101C5C00012B01D1022369E0364B01221A767B68F5
:101C6C001B6803F00103002B1AD07B685B68012B07
:101C7C0007D17B689B68184600F0B6F80346FB73E7
:101C8C0006E07B689B68184600F050F90346FB732E
:101C9C00FB7B002B04D0274B00221A76FB7B45E004
:101CAC007B681B6803F00203002B0ED07B681B7C47
:101CBC00184600F0DBF90346FB73FB7B002B04D0CA
:101CCC001C4B00221A76FB7B30E07B681B6803F010
:101CDC000403002B0ED07B685B7C184600F016FAD0
:101CEC000346FB73FB7B002B04D0124B00221A76AD
:101CFC00FB7B1BE07B681B6803F00803002B11D0F7
:101D0C007B685A697B681B7E1946104600F036FAD0
:101D1C000346FB73FB7B002B04D0064B00221A7688
:101D2C00FB7B03E0034B00221A76FB7B1846103733
:101D3C00BD4680BD8807002080B582B000AF7860BA
:101D4C007B6807221A6000F04DFA02467B689A60A5
:101D5C0000F052FA0346DAB27B681A7400F068FAA3
:101D6C0003461A467B685A7400BF0837BD4680BDCF
:101D7C0080B485B000AF78600023FB607B680A4AB2
:101D8C00934205D1094BDB699B0ADBB2FB6004E093
:101D9C00064BDB699B0CDBB2FB60FB681846143707
:101DAC00BD4680BC704700BF04F8FF1F00200240F6
:101DBC0080B483B000AF7860094B0022DA61094B24
:101DCC001B69084A43F004031361064B1B69054A5F
:101DDC0043F04003136100BF0C37BD4680BC704715
:101DEC00880700200020024080B586B000AF7860E4
:101DFC000023FB754FF6FF73BB824FF6FF737B829C
:101E0C004FF6FF733B824FF6FF73FB8100F0EAF94C
:101E1C000346DA437B681343DB437B607B689BB2EE
:101E2C00DBB2BB827B681B0A9BB2DBB27B827B681A
:101E3C001B0C9BB2DBB23B827B681B0EFB814CF212
:101E4C005030FFF777FD0346FB75FB7D002B62D10D
:101E5C00334B0022DA61FFF7B1FE0346FB75FB7DC5
:101E6C00002B58D12F4B1B692E4A43F010031361E2
:101E7C00BB8AFF2B0DD02C4B1B899AB22A49BB8AEB
:101E8C0013409BB20B814CF25030FFF753FD0346CD
:101E9C00FB75FB7D002B10D17B8AFF2B0DD0224BC9
:101EAC005B899AB220497B8A13409BB24B814CF2DE
:101EBC005030FFF73FFD0346FB75FB7D002B10D127
:101ECC003B8AFF2B0DD0184B9B899AB216493B8A43
:101EDC0013409BB28B814CF25030FFF72BFD034625
:101EEC00FB75FB7D002B10D1FB89FF2B0DD00E4B0E
:101EFC00DB899AB20C49FB8913409BB2CB814CF223
:101F0C005030FFF717FD0346FB75064B1B69054A5E
:101F1C0023F010031361FB7D18461837BD4680BDB6
:101F2C00880700200020024000F8FF1F80B586B013
:101F3C0000AF78600023FB754FF6FF73BB824FF642
:101F4C00FF737B824FF6FF733B824FF6FF73FB816F
:101F5C0000F048F902467B6813437B607B689BB2B8
:101F6C00DBB2BB827B681B0A9BB2DBB27B827B68D9
:101F7C001B0C9BB2DBB23B827B681B0EFB814CF2D1
:101F8C005030FFF7D7FC0346FB75FB7D002B62D16D
:101F9C00334B0022DA61FFF711FE0346FB75FB7D24
:101FAC00002B58D12F4B1B692E4A43F010031361A1
:101FBC00BB8AFF2B0DD02C4B1B899AB22A49BB8AAA
:101FCC0013439BB20B814CF25030FFF7B3FC03462A
:101FDC00FB75FB7D002B10D17B8AFF2B0DD0224B88
:101FEC005B899AB220497B8A13439BB24B814CF29A
:101FFC005030FFF79FFC0346FB75FB7D002B10D187
:10200C003B8AFF2B0DD0184B9B899AB216493B8A01
:10201C0013439BB28B814CF25030FFF78BFC034681
:10202C00FB75FB7D002B10D1FB89FF2B0DD00E4BCC
:10203C00DB899AB20C49FB8913439BB2CB814CF2DE
:10204C005030FFF777FC0346FB75064B1B69054ABE
:10205C0023F010031361FB7D18461837BD4680BD75
:10206C00880700200020024000F8FF1F80B584B0D4
:10207C0000AF0346FB710023FB734CF25030FFF7AB
:10208C0059FC0346FB73FB7B002B33D11C4B00220A
:10209C00DA611C4B1B691B4A43F020031361194B7B
:1020AC001B69184A43F0400313614CF25030FFF7A0
:1020BC0041FC0346FB73134B1B69124A23F02003AC
:1020CC001361FB7B002B15D10E4B1B690D4A43F0A2
:1020DC00100313610C4BFA7992B21A804CF2503007
:1020EC00FFF728FC0346FB73064B1B69054A23F0DC
:1020FC0010031361FB7B18461037BD4680BD00BF33
:10210C00880700200020024000F8FF1F80B584B033
:10211C0000AF0346FB710023FB734CF25030FFF70A
:10212C0009FC0346FB73FB7B002B1BD1104B0022DD
:10213C00DA61104B1B690F4A43F010031361FB79F2
:10214C0063F07703DAB20C4B92B25A804CF25030F7
:10215C00FFF7F0FB0346FB73064B1B69054A23F0A4
:10216C0010031361FB7B18461037BD4680BD00BFC2
:10217C00880700200020024000F8FF1F80B584B0C3
:10218C0000AF78600B46FB700123FB734CF25030B0
:10219C00FFF7D0FB0346FB73FB7B002B18D10F4BD7
:1021AC000022DA610E4B1B690D4A43F010031361D8
:1021BC007B68FA7892B21A804CF25030FFF7BAFB77
:1021CC000346FB73064B1B69054A23F0100313618E
:1021DC00FB7B18461037BD4680BD00BF880700202A
:1021EC000020024080B400AF024B1B6A1846BD466B
:1021FC0080BC70470020024080B483B000AFA523A0
:10220C007B6000233B60094BDB6903F002033B60FE
:10221C003B68022B02D100237B6001E0A5237B608D
:10222C007B6818460C37BD4680BC704700200240C6
:10223C0080B400AF054BDB699B08DBB203F00703EE
:10224C00DBB21846BD4680BC704700BF0020024080
:10225C0080B483B000AF78600B4B0022DA610B4B7B
:10226C001B690A4A43F002031361084A7B685361F5
:10227C00064B1B69054A43F04003136100BF0C3742
:10228C00BD4680BC704700BF88070020002002407C
:10229C0080B48BB000AF786039600023FB61002301
:1022AC00BB6100237B6100233B6200233B61002365
:1022BC007B6227E101227B6A02FA03F3FB613B6834
:1022CC001B68FA691340BB61BA69FB699A4240F01A
:1022DC0016813B685B68122B34D0122B0DD8022B65
:1022EC002BD0022B04D8002B31D0012B1CD048E072
:1022FC00032B43D0112B1BD043E0874A934226D0AB
:10230C00854A934206D8854A934220D0844A934208
:10231C001DD036E0834A934219D0834A934216D09B
:10232C00824A934213D02CE03B68DB683B6228E086
:10233C003B68DB6804333B6223E03B68DB680833B3
:10234C003B621EE03B68DB680C333B6219E03B6888
:10235C009B68002B02D104233B6212E03B689B6814
:10236C00012B05D108233B627B68FA691A6108E0EE
:10237C0008233B627B68FA695A6102E000233B62E6
:10238C0000BFBB69FF2B01D87B6801E07B6804337D
:10239C00FB60BB69FF2B02D87B6A9B0002E07B6A67
:1023AC00083B9B003B61FB681A680F213B6901FAF3
:1023BC0003F3DB431A40396A3B6901FA03F31A430E
:1023CC00FB681A603B685B6803F08053002B00F0DD
:1023DC009680574B9B69564A43F001039361544BCB
:1023EC009B6903F00103BB60BB68524A7B6A9B0884
:1023FC00023352F823307B617B6A03F003039B00AA
:10240C000F2202FA03F3DB437A6913407B617B688A
:10241C00494A934213D07B68484A93420DD07B685B
:10242C00474A934207D07B68464A934201D1032323
:10243C0006E0042304E0022302E0012300E0002371
:10244C007A6A02F00302920093407A6913437B612B
:10245C0038497B6A9B0802337A6941F823203B6830
:10246C005B6803F48033002B06D0374B1A6836496F
:10247C00BB6913430B6006E0334B1A68BB69DB4343
:10248C00314913400B603B685B6803F40033002B4D
:10249C0006D02D4B5A682C49BB6913434B6006E0A0
:1024AC00294B5A68BB69DB43274913404B603B6897
:1024BC005B6803F48013002B06D0234B9A682249E7
:1024CC00BB6913438B6006E01F4B9A68BB69DB4307
:1024DC001D4913408B603B685B6803F40013002BB1
:1024EC0006D0194BDA681849BB691343CB6006E078
:1024FC00154BDA68BB69DB4313491340CB607B6A2D
:10250C0001337B627B6A0F2B7FF6D4AE00BF2C3776
:10251C00BD4680BC704700BF0000211000001110A8
:10252C0000001210000031100000321000002210C8
:10253C00001002400000014000080140000C014066
:10254C0000100140001401400004014080B489B027
:10255C0000AF786039600023FB610023BB6100236E
:10256C007B6100233B619AE00122FB6902FA03F3D1
:10257C003A681340BB61BB69002B00F08D80BB69CE
:10258C00FF2B01D87B6801E07B680433FB60BB69DF
:10259C00FF2B02D8FB699B0002E0FB69083B9B0008
:1025AC003B61FB681A680F213B6901FA03F3DB43BB
:1025BC001A4004213B6901FA03F31A43FB681A60C1
:1025CC007B68DA68BB69DB431A407B68DA603A4A9D
:1025DC00FB699B08023352F823307B61FB6903F0E3
:1025EC0003039B000F2202FA03F37A6913407B6109
:1025FC007B68324A934213D07B68314A93420DD0A8
:10260C007B68304A934207D07B682F4A934201D1B2
:10261C00032306E0042304E0022302E0012300E08C
:10262C000023FA6902F00302920093407A699A42FD
:10263C0032D1FB6903F003039B000F2202FA03F370
:10264C007B611D4AFB699B08023352F823107B699E
:10265C00DA431948FB699B080A40023340F82320EF
:10266C001A4B1A68BB69DB43184913400B60174BB4
:10267C005A68BB69DB43154913404B60134B9A688E
:10268C00BB69DB43114913408B60104BDA68BB69A3
:10269C00DB430E491340CB60FB690133FB613A68A5
:1026AC00FB6922FA03F3002B7FF45EAF00BF2437E3
:1026BC00BD4680BC704700BF0000014000080140CF
:1026CC00000C0140001001400014014000040140C6
:1026DC0080B485B000AF78600B467B807B689A68CD
:1026EC007B881340002B02D00123FB7301E00023F5
:1026FC00FB73FB7B18461437BD4680BC704780B417
:10270C0083B000AF78600B467B8013467B707B7880
:10271C00002B03D07A887B681A6103E07B881A044B
:10272C007B681A6100BF0C37BD4680BC704780B413
:10273C0083B000AF78600B467B807B68DA687B885F
:10274C005A407B68DA6000BF0C37BD4680BC7047CE
:10275C0080B485B000AF78600B467B804FF480333B
:10276C00FB607A88FB681343FB60FA687B689A61AC
:10277C007A887B689A61FA687B689A617B689B6946
:10278C00FB607B689B6903F48033002B01D0002332
:10279C0000E0012318461437BD4680BC704780B555
:1027AC0082B000AF0346FB80084B5A69FB8813408C
:1027BC00002B06D0054AFB885361FB88184600F0B5
:1027CC0007F800BF0837BD4680BD00BF00040140BC
:1027DC0080B483B000AF0346FB8000BF0C37BD460E
:1027EC0080BC704780B483B000AF78603960074B11
:1027FC001B6823F07F0279683B680B430349134342
:10280C000B6000BF0C37BD4680BC70470000014018
:10281C0080B400AF044B1B68034A43F08003136081
:10282C0000BFBD4680BC70470000014080B400AFC3
:10283C00044B1B68034A23F08003136000BFBD46A2
:10284C0080BC70470000014080B400AF20BF00BFC7
:10285C0000BFBD4680BC704780B400AF074B1B69FE
:10286C00064A43F080531361044B1B69034A23F05F
:10287C008053136100BFBD4680BC704700100240FE
:10288C0080B400AF034B01221A6000BFBD4680BC70
:10289C00704700BF20000E4280B400AF034B0022F3
:1028AC001A6000BFBD4680BC704700BF20000E42BE
:1028BC0080B483B000AF78602A4B1B6823F0E00231
:1028CC007B681B68274913430B60274B5B68264AC0
:1028DC0023F480335360244B1B68234A23F4803346
:1028EC001360214BDB68204A23F48033D3601E4BEA
:1028FC009B681D4A23F4803393607B685B6803F408
:10290C008033002B05D0184B1B68174A43F48033D7
:10291C0013607B685B6803F40033002B05D0124B0B
:10292C005B68114A43F4803353607B685B6803F047
:10293C000103002B05D00C4B9B680B4A43F48033EE
:10294C0093607B685B6803F00203002B05D0064B99
:10295C00DB68054A43F48033D36000BF0C37BD46B7
:10296C0080BC7047007000400004014080B400AF90
:10297C00034B01221A6000BFBD4680BC704700BFEC
:10298C0010000E4280B400AF034B00221A6000BF4F
:10299C00BD4680BC704700BF10000E4280B485B0AD
:1029AC0000AF78607B68FB60FB6893FAA3F3BB60B5
:1029BC00BB68B3FA83F31A46054B13449B001A46C3
:1029CC000123136000BF1437BD4680BC704700BFA5
:1029DC002080831080B485B000AF78607B68FB608A
:1029EC00FB6893FAA3F3BB60BB68B3FA83F31A4694
:1029FC00054B13449B001A460023136000BF143789
:102A0C00BD4680BC704700BF2080831080B483B06B
:102A1C0000AF78600B46FB70094B1B69084A23F02A
:102A2C0004031361FB78012B01D130BF02E040BFDE
:102A3C0020BF20BF00BF0C37BD4680BC704700BF15
:102A4C0000ED00E080B582B000AF78600B46FB7003
:102A5C00134B1B68124A23F002031360104B1B68C4
:102A6C0023F001020E497B6813430B600D4B1B696D
:102A7C000C4A43F004031361FB78012B01D130BFE6
:102A8C0004E040BFFFF7E0FEFFF7DEFE054B1B69DD
:102A9C00044A23F00403136100BF0837BD4680BD10
:102AAC000070004000ED00E080B400AF084B1B68E4
:102ABC00074A43F002031360064B1B69054A43F0B7
:102ACC000403136130BF00BFBD4680BC704700BF1C
:102ADC000070004000ED00E080B400AF044B1B69B7
:102AEC00034A43F00203136100BFBD4680BC70472C
:102AFC0000ED00E080B400AF044B1B69034A23F0E7
:102B0C000203136100BFBD4680BC704700ED00E0BE
:102B1C0080B400AF044B1B69034A43F010031361EC
:102B2C0000BFBD4680BC704700ED00E080B400AF34
:102B3C00044B1B69034A23F01003136100BFBD460D
:102B4C0080BC704700ED00E080B500AF064B5B69C0
:102B5C0003F48033002B05D000F008F8024B4FF43F
:102B6C0080325A6100BF80BD0004014080B400AFC8
:102B7C0000BFBD4680BC704780B582B000AFFDF78A
:102B8C0095FB7860444B1B68434A43F00103136088
:102B9C0008E0FDF78BFB02467B68D31A022B01D9A8
:102BAC00032375E03C4B1B6803F00203002BF0D0B1
:102BBC00394B1B6823F0F803374A43F0800313604A
:102BCC00FDF774FB7860344B00225A600AE0FDF785
:102BDC006DFB02467B68D31A41F28832934201D9CD
:102BEC00032355E02C4B5B6803F00C03002BEED158
:102BFC002A4B2B4A1A600020FDF716FB0346002BCC
:102C0C0001D0012344E0FDF751FB7860224B1B6897
:102C1C00214A23F08073136008E0FDF747FB02465E
:102C2C007B68D31A022B01D9032331E01A4B1B68A2
:102C3C0003F00073002BF0D1174B00225A60FDF704
:102C4C0035FB7860144B1B68134A23F41023136074
:102C5C0008E0FDF72BFB02467B68D31A642B01D9E5
:102C6C00032315E00C4B1B6803F40033002BF0D14D
:102C7C00094B1B68084A23F480231360064B5B6ADC
:102C8C00054A43F080735362034B00229A60002381
:102C9C0018460837BD4680BD001002400C000020CD
:102CAC0000127A0080B586B000AF786000233B61DB
:102CBC007B681B6803F00103002B00F08780924BAC
:102CCC005B6803F00C03042B0CD08F4B5B6803F098
:102CDC000C03082B12D18C4B5B6803F48033B3F5D7
:102CEC00803F0BD1884B1B6803F40033002B6CD056
:102CFC007B685B68002B68D101232DE27B685B68E5
:102D0C00B3F5803F06D1804B1B687F4A43F4803378
:102D1C0013602EE07B685B68002B0CD17A4B1B6830
:102D2C00794A23F480331360774B1B68764A23F47B
:102D3C00802313601DE07B685B68B3F5A02F0CD17A
:102D4C00714B1B68704A43F4802313606E4B1B68F5
:102D5C006D4A43F4803313600BE06B4B1B686A4A7B
:102D6C0023F480331360684B1B68674A23F4802379
:102D7C0013607B685B68002B13D0FDF797FA386102
:102D8C0008E0FDF793FA02463B69D31A642B01D98C
:102D9C000323E1E15C4B1B6803F40033002BF0D000
:102DAC0014E0FDF783FA386108E0FDF77FFA02467C
:102DBC003B69D31A642B01D90323CDE1524B1B6819
:102DCC0003F40033002BF0D100E000BF7B681B68DC
:102DDC0003F00203002B63D04B4B5B6803F00C0336
:102DEC00002B0BD0484B5B6803F00C03082B1CD159
:102DFC00454B5B6803F48033002B16D1424B1B68A8
:102E0C0003F00203002B05D07B681B69012B01D05A
:102E1C000123A1E13C4B1B6823F0F8027B685B6942
:102E2C00DB00394913430B603AE07B681B69002BCC
:102E3C0020D0364B01221A60FDF738FA386108E0D1
:102E4C00FDF734FA02463B69D31A022B01D903234E
:102E5C0082E12D4B1B6803F00203002BF0D02A4BB0
:102E6C001B6823F0F8027B685B69DB00264913437F
:102E7C000B6015E0254B00221A60FDF717FA38613C
:102E8C0008E0FDF713FA02463B69D31A022B01D96D
:102E9C00032361E11C4B1B6803F00203002BF0D1F0
:102EAC007B681B6803F00803002B39D07B689B6997
:102EBC00002B19D0164B01221A60FDF7F7F9386177
:102ECC0008E0FDF7F3F902463B69D31A022B01D94E
:102EDC00032341E10C4B5B6A03F00203002BF0D09F
:102EEC00012000F0E1FB1BE0094B00221A60FDF70A
:102EFC00DDF938610EE0FDF7D9F902463B69D31ACA
:102F0C00022B07D9032327E10010024000004242A4
:102F1C0080044242924B5B6A03F00203002BEAD11D
:102F2C007B681B6803F00403002B00F0A6800023D1
:102F3C00FB758B4BDB6903F08053002B0DD1884B59
:102F4C00DB69874A43F08053D361854BDB6903F01F
:102F5C008053FB60FB680123FB75824B1B6803F4F9
:102F6C008073002B18D17F4B1B687E4A43F480730F
:102F7C001360FDF79BF9386108E0FDF797F90246FD
:102F8C003B69D31A642B01D90323E5E0754B1B680D
:102F9C0003F48073002BF0D07B68DB68012B06D127
:102FAC006F4B1B6A6E4A43F0010313622DE07B6882
:102FBC00DB68002B0CD16A4B1B6A694A23F00103B6
:102FCC001362674B1B6A664A23F0040313621CE00E
:102FDC007B68DB68052B0CD1614B1B6A604A43F0A4
:102FEC00040313625E4B1B6A5D4A43F001031362D8
:102FFC000BE05B4B1B6A5A4A23F001031362584BDC
:10300C001B6A574A23F0040313627B68DB68002BAE
:10301C0015D0FDF74BF938610AE0FDF747F9024688
:10302C003B69D31A41F28832934201D9032393E0CE
:10303C004B4B1B6A03F00203002BEED014E0FDF7A0
:10304C0035F938610AE0FDF731F902463B69D31ACC
:10305C0041F28832934201D903237DE0404B1B6A35
:10306C0003F00203002BEED1FB7D012B05D13C4B71
:10307C00DB693B4A23F08053D3617B68DB69002B0F
:10308C0069D0374B5B6803F00C03082B61D07B686D
:10309C00DB69022B46D1344B00221A60FDF706F98E
:1030AC00386108E0FDF702F902463B69D31A022B9E
:1030BC0001D9032350E02A4B1B6803F00073002B4B
:1030CC00F0D17B681B6AB3F5803F08D1244B5B6859
:1030DC0023F400327B689B68214913434B60204BDF
:1030EC005B6823F474127B68196A7B685B6A0B4318
:1030FC001B4913434B601C4B01221A60FDF7D6F899
:10310C00386108E0FDF7D2F802463B69D31A022B6E
:10311C0001D9032320E0124B1B6803F00073002B32
:10312C00F0D018E0104B00221A60FDF7BFF83861A0
:10313C0008E0FDF7BBF802463B69D31A022B01D914
:10314C00032309E0064B1B6803F00073002BF0D13E
:10315C0001E0012300E0002318461837BD4680BD6E
:10316C0000100240007000406000424280B584B004
:10317C0000AF786039600023FB60724B1B6803F072
:10318C0007033A689A4210D96E4B1B6823F007026A
:10319C006C493B6813430B606A4B1B6803F00703D5
:1031AC003A689A4201D00123C8E07B681B6803F09F
:1031BC000203002B08D0644B5B6823F0F0027B68A1
:1031CC009B68614913434B607B681B6803F00103E8
:1031DC00002B6AD07B685B68012B07D15A4B1B68AC
:1031EC0003F40033002B15D10123A7E07B685B6847
:1031FC00022B07D1544B1B6803F00073002B09D131
:10320C0001239BE0504B1B6803F00203002B01D100
:10321C00012393E04C4B5B6823F003027B685B68F3
:10322C00494913434B60FDF741F8F8607B685B68D4
:10323C00012B12D10AE0FDF739F80246FB68D31ACC
:10324C0041F28832934201D9032377E03E4B5B680D
:10325C0003F00C03042BEED127E07B685B68022B98
:10326C001DD10AE0FDF722F80246FB68D31A41F2A1
:10327C008832934201D9032360E0334B5B6803F03F
:10328C000C03082BEED110E0FDF710F80246FB689A
:10329C00D31A41F28832934201D903234EE02A4BD0
:1032AC005B6803F00C03002BEED1264B1B6803F07C
:1032BC0007033A689A4210D2224B1B6823F007028C
:1032CC0020493B6813430B601E4B1B6803F007033C
:1032DC003A689A4201D0012330E07B681B6803F006
:1032EC000403002B08D0184B5B6823F4E0627B6866
:1032FC00DB68154913434B607B681B6803F00803BC
:10330C00002B09D0104B5B6823F460527B681B695F
:10331C00DB000D4913434B6000F06CF801460A4B7F
:10332C005B681B0903F00F03084AD35C21FA03F313
:10333C00074A13600020FCF777FF0023184610376C
:10334C00BD4680BD00200240001002409CB7000822
:10335C000C00002080B58AB000AFF860B9607A60CC
:10336C0007F1180300221A605A609A60DA6002238F
:10337C00FB6103237B6200233B624FF48073BB61D0
:10338C000E4B9B690D4A43F0040393610B4B9B69F5
:10339C0003F004037B617B6907F1180319460848A5
:1033AC00FEF776FF054B5B6823F0E0620349BB68D0
:1033BC0013434B6000BF2837BD4680BD0010024050
:1033CC000008014080B400AF034B01221A6000BF1B
:1033DC00BD4680BC704700BF4C00424280B400AF79
:1033EC00034B00221A6000BFBD4680BC704700BF73
:1033FC004C00424290B48AB000AF2A4B3C1D0FCB1C
:10340C0084E80F00284B1B883B800023FB610023C2
:10341C00BB6100237B6200237B6100233B62234B57
:10342C005B68FB61FB6903F00C03042B02D0082BD7
:10343C0003D02DE01E4B3B622DE0FB699B0C03F08F
:10344C000F0307F12802134413F8243C7B61FB693A
:10345C0003F48033002B13D0144B5B685B0C03F02C
:10346C00010307F12802134413F8283CBB617B6964
:10347C000F4A02FB03F2BB69B2FBF3F37B6204E07D
:10348C007B690C4A02FB03F37B627B6A3B6202E0C2
:10349C00074B3B6200BF3B6A18462837BD4690BCC1
:1034AC00704700BF64B7000874B7000800100240F2
:1034BC0000127A0000093D0080B400AF024B1B687B
:1034CC001846BD4680BC70470C00002080B500AF8C
:1034DC00FFF7F2FF0146054B5B681B0A03F007037D
:1034EC00034AD35C21FA03F3184680BD0010024056
:1034FC00ACB7000880B500AFFFF7DEFF0146054B07
:10350C005B68DB0A03F00703034AD35C21FA03F37D
:10351C00184680BD00100240ACB7000880B483B0E0
:10352C0000AF78607B680F221A603C4B1B6803F479
:10353C008023B3F5802F04D17B684FF4A0225A600E
:10354C000EE0364B1B6803F48033B3F5803F04D197
:10355C007B684FF480325A6002E07B6800225A602C
:10356C002E4B5B6803F400327B689A602B4B1B6814
:10357C0003F00103012B03D17B6801221A6102E0E5
:10358C007B6800221A61254B1B68DB0803F01F02C5
:10359C007B685A61214B1B6A03F00403042B03D193
:1035AC007B680522DA600CE01C4B1B6A03F00103FC
:1035BC00012B03D17B680122DA6002E07B680022D8
:1035CC00DA60164B5B6A03F00103012B03D17B68B5
:1035DC0001229A6102E07B6800229A610F4B1B6802
:1035EC0003F08073B3F1807F03D17B680222DA6130
:1035FC0002E07B680122DA61084B5B6803F48032DD
:10360C007B681A62054B5B6803F470127B685A6224
:10361C0000BF0C37BD4680BC704700BF0010024095
:10362C0080B483B000AF786039607B680F221A6079
:10363C00114B5B6803F003027B685A600E4B5B68AE
:10364C0003F0F0027B689A600B4B5B6803F4E0625A
:10365C007B68DA60084B5B68DB0803F4E0627B682C
:10366C001A61064B1B6803F007023B681A6000BF27
:10367C000C37BD4680BC7047001002400020024051
:10368C0080B500AF064B9B6803F08003802B04D100
:10369C0000F028F8034B80221A7000BF80BD00BFD9
:1036AC00001002400A10024080B485B000AF786070
:1036BC000A4B1B680A4AA2FB03235B0A7A6802FBCB
:1036CC0003F3FB6000BFFB685A1EFA60002BF9D1B4
:1036DC0000BF1437BD4680BC704700BF0C000020F3
:1036EC00D34D621080B400AF00BFBD4680BC7047A4
:1036FC0080B586B000AF786000233B610023FB608F
:10370C007B681B6803F00103002B7DD00023FB7545
:10371C004F4BDB6903F08053002B0DD14C4BDB6915
:10372C004B4A43F08053D361494BDB6903F0805320
:10373C00BB60BB680123FB75464B1B6803F48073AD
:10374C00002B18D1434B1B68424A43F4807313601F
:10375C00FCF7ACFD386108E0FCF7A8FD02463B69BC
:10376C00D31A642B01D903236DE03A4B1B6803F485
:10377C008073002BF0D0364B1B6A03F44073FB6054
:10378C00FB68002B2ED07B685B6803F44073FA68EF
:10379C009A4227D02E4B1B6A23F44073FB602E4BAE
:1037AC0001221A602C4B00221A60294AFB68136212
:1037BC00FB6803F00103002B14D0FCF777FD386194
:1037CC000AE0FCF773FD02463B69D31A41F28832DA
:1037DC00934201D9032336E01D4B1B6A03F002030D
:1037EC00002BEED01A4B1B6A23F440727B685B688B
:1037FC00174913430B62FB7D012B05D1144BDB697D
:10380C00134A23F08053D3617B681B6803F00203D7
:10381C00002B08D00E4B5B6823F440427B689B68FE
:10382C000B4913434B607B681B6803F01003002BA0
:10383C0008D0074B5B6823F480027B68DB68044983
:10384C0013434B60002318461837BD4680BD00BF9C
:10385C0000100240007000404004424280B485B029
:10386C0000AF78600023FB607B6801221A60124B6A
:10387C001B6A03F44073FB607B68FA685A607B68D0
:10388C001B6843F002027B681A600B4B5B6803F405
:10389C0040427B689A607B681B6843F010027B682F
:1038AC001A60054B5B6803F480027B68DA6000BF2A
:1038BC001437BD4680BC70470010024090B58DB0E7
:1038CC0000AF7860574B07F10C040FCB84E80F0066
:1038DC00554B1B883B8100237B620023FB6200233A
:1038EC003B620023FB610023BB627B68022B00F070
:1038FC008480102B02D0012B49D08DE04B4B5B68A0
:10390C00FB614A4B1B6803F08073002B00F0838033
:10391C00FB699B0C03F00F0307F13002134413F8FF
:10392C00243C3B62FB6903F48033002B18D03F4BE3
:10393C005B685B0C03F0010307F13002134413F8CE
:10394C00283C7B62FB6903F48033002B0DD0384A92
:10395C007B6AB2FBF3F23B6A02FB03F3FB6204E00B
:10396C003B6A344A02FB03F3FB62304B5B6803F4A3
:10397C008003B3F5800F02D1FB6ABB624BE0FB6A9C
:10398C005B002D4AA2FB03235B08BB6243E0274B81
:10399C001B6AFB61FB6903F44073B3F5807F08D1AC
:1039AC00FB6903F00203002B03D04FF40043BB620E
:1039BC0022E0FB6903F44073B3F5007F09D11B4B84
:1039CC005B6A03F00203002B03D049F64043BB6251
:1039DC0012E0FB6903F44073B3F5407F09D1134B3C
:1039EC001B6803F40033002B03D04FF22443BB625B
:1039FC0002E00023BB620FE00EE0FFF77BFD024606
:103A0C000A4B5B689B0B03F0030301335B00B2FBB7
:103A1C00F3F3BB6200E000BFBB6A18463437BD4607
:103A2C0090BD00BF78B7000888B7000800100240AE
:103A3C0000127A0000093D00ABAAAAAA80B582B098
:103A4C0000AF78607B68002B01D101231DE07B68FF
:103A5C0093F83D30DBB2002B06D17B68002283F853
:103A6C003C20786806F066FF7B68022283F83D20D4
:103A7C007B681A687B6804331946104603F049F9D1
:103A8C007B68012283F83D20002318460837BD4689
:103A9C0080BD80B582B000AF78607B68022283F86D
:103AAC003D207B681B681A6A41F211131340002BEE
:103ABC000FD17B681B681A6A40F244431340002BF9
:103ACC0007D17B681B681A687B681B6822F00102AF
:103ADC001A60786806F054FF7B68002283F83D205A
:103AEC007B68002283F83C20002318460837BD462B
:103AFC0080BD80B483B000AF786000BF0C37BD468A
:103B0C0080BC704780B483B000AF786000BF0C37C6
:103B1C00BD4680BC704780B483B000AF78607B68D2
:103B2C00022283F83D207B681B681A687B681B683F
:103B3C0042F001021A607B68012283F83D200023C9
:103B4C0018460C37BD4680BC704780B483B000AFBC
:103B5C0078607B68022283F83D207B681B681A6AB8
:103B6C0041F211131340002B0FD17B681B681A6AAA
:103B7C0040F244431340002B07D17B681B681A6842
:103B8C007B681B6822F001021A607B68012283F8B3
:103B9C003D20002318460C37BD4680BC704780B4CE
:103BAC0083B000AF78607B681B68DA687B681B6841
:103BBC0042F00102DA607B681B681A687B681B683C
:103BCC0042F001021A60002318460C37BD4680BC37
:103BDC00704780B483B000AF78607B681B68DA688C
:103BEC007B681B6822F00102DA607B681B681A6A2A
:103BFC0041F211131340002B0FD17B681B681A6A1A
:103C0C0040F244431340002B07D17B681B681A68B1
:103C1C007B681B6822F001021A60002318460C37DF
:103C2C00BD4680BC704780B584B000AFF860B96009
:103C3C001346FB80FB6893F83D30DBB2022B01D1BD
:103C4C00022334E0FB6893F83D30DBB2012B0BD13F
:103C5C00BB68002B04D1FB88002B01D0012326E08C
:103C6C00FB68022283F83D20FB681B6A124A9A62A9
:103C7C00FB681B6A114A1A63FB68186AB968FB680F
:103C8C001B682C331A46FB88FCF7A6FFFB681B68E5
:103C9C00DA68FB681B6842F48072DA60FB681B68A8
:103CAC001A68FB681B6842F001021A600023184670
:103CBC001037BD4680BD00BFD76C0008D36B000821
:103CCC0080B483B000AF78607B681B68DA687B686F
:103CDC001B6822F48072DA607B681B681A6A41F2F6
:103CEC0011131340002B0FD17B681B681A6A40F22A
:103CFC0044431340002B07D17B681B681A687B6810
:103D0C001B6822F001021A607B68012283F83D20B7
:103D1C00002318460C37BD4680BC704780B582B076
:103D2C0000AF78607B68002B01D101231DE07B681C
:103D3C0093F83D30DBB2002B06D17B68002283F870
:103D4C003C20786800F045F87B68022283F83D201F
:103D5C007B681A687B6804331946104602F0D9FF59
:103D6C007B68012283F83D20002318460837BD46A6
:103D7C0080BD80B582B000AF78607B68022283F88A
:103D8C003D207B681B681A6A41F211131340002B0B
:103D9C000FD17B681B681A6A40F244431340002B16
:103DAC0007D17B681B681A687B681B6822F00102CC
:103DBC001A60786800F016F87B68002283F83D20C2
:103DCC007B68002283F83C20002318460837BD4648
:103DDC0080BD80B483B000AF786000BF0C37BD46A7
:103DEC0080BC704780B483B000AF786000BF0C37E4
:103DFC00BD4680BC704780B582B000AF786039603A
:103E0C007B681B6801223968184603F0D7FB7B6876
:103E1C001B680C4A934207D17B681B685A6C7B6801
:103E2C001B6842F400425A647B681B681A687B6802
:103E3C001B6842F001021A60002318460837BD4681
:103E4C0080BD00BF002C014080B582B000AF78600F
:103E5C0039607B681B6800223968184603F0AEFB9A
:103E6C007B681B681B4A934217D17B681B681A6AD4
:103E7C0041F211131340002B0FD17B681B681A6A97
:103E8C0040F244431340002B07D17B681B685A6CEB
:103E9C007B681B6822F400425A647B681B681A6AB0
:103EAC0041F211131340002B0FD17B681B681A6A67
:103EBC0040F244431340002B07D17B681B681A68FF
:103ECC007B681B6822F001021A6000231846083731
:103EDC00BD4680BD002C014080B582B000AF78603B
:103EEC0039603B680C2B41D801A252F823F000BF7B
:103EFC00313F0008793F0008793F0008793F0008FE
:103F0C00433F0008793F0008793F0008793F0008DB
:103F1C00553F0008793F0008793F0008793F0008B9
:103F2C00673F00087B681B68DA687B681B6842F097
:103F3C000202DA601BE07B681B68DA687B681B682E
:103F4C0042F00402DA6012E07B681B68DA687B6876
:103F5C001B6842F00802DA6009E07B681B68DA68CB
:103F6C007B681B6842F01002DA6000E000BF7B68DF
:103F7C001B6801223968184603F020FB7B681B681C
:103F8C000B4A934207D17B681B685A6C7B681B6891
:103F9C0042F400425A647B681B681A687B681B6891
:103FAC0042F001021A60002318460837BD4680BD56
:103FBC00002C014080B582B000AF786039603B685E
:103FCC000C2B41D801A252F823F000BF0D40000881
:103FDC005540000855400008554000081F40000897
:103FEC005540000855400008554000083140000875
:103FFC005540000855400008554000084340000853
:10400C007B681B68DA687B681B6822F00202DA6046
:10401C001BE07B681B68DA687B681B6822F0040273
:10402C00DA6012E07B681B68DA687B681B6822F038
:10403C000802DA6009E07B681B68DA687B681B6839
:10404C0022F01002DA6000E000BF7B681B680022DF
:10405C003968184603F0B2FA7B681B681B4A934216
:10406C0017D17B681B681A6A41F211131340002B9D
:10407C000FD17B681B681A6A40F244431340002B33
:10408C0007D17B681B685A6C7B681B6822F4004262
:10409C005A647B681B681A6A41F211131340002B97
:1040AC000FD17B681B681A6A40F244431340002B03
:1040BC0007D17B681B681A687B681B6822F00102B9
:1040CC001A60002318460837BD4680BD002C0140FD
:1040DC0080B584B000AFF860B9607A607B80FB6813
:1040EC0093F83D30DBB2022B01D10223BCE0FB681C
:1040FC0093F83D30DBB2012B0BD17B68002B04D144
:10410C007B88002B01D00123AEE0FB68022283F8F0
:10411C003D20BB680C2B00F2898001A252F823F0E1
:10412C006141000839420008394200083942000850
:10413C00974100083942000839420008394200080A
:10414C00CD410008394200083942000839420008C4
:10415C0003420008FB685B6A454A9A62FB685B6A2B
:10416C00444A1A63FB68586A7968FB681B683433E5
:10417C001A467B88FCF730FDFB681B68DA68FB6825
:10418C001B6842F40072DA6051E0FB689B6A384AA3
:10419C009A62FB689B6A374A1A63FB68986A79686B
:1041AC00FB681B6838331A467B88FCF715FDFB68E7
:1041BC001B68DA68FB681B6842F48062DA6036E0E0
:1041CC00FB68DB6A2A4A9A62FB68DB6A294A1A6333
:1041DC00FB68D86A7968FB681B683C331A467B8895
:1041EC00FCF7FAFCFB681B68DA68FB681B6842F496
:1041FC000062DA601BE0FB681B6B1D4A9A62FB686D
:10420C001B6B1C4A1A63FB68186B7968FB681B688C
:10421C0040331A467B88FCF7DFFCFB681B68DA68C6
:10422C00FB681B6842F48052DA6000E000BFFB6858
:10423C001B680122B968184603F0C0F9FB681B68BB
:10424C000D4A934207D1FB681B685A6CFB681B68CC
:10425C0042F400425A64FB681B681A68FB681B68CE
:10426C0042F001021A60002318461037BD4680BD8B
:10427C00F76B0008D36B0008002C014080B582B0AE
:10428C0000AF786039603B680C2B41D801A252F822
:10429C0023F000BFD54200081D4300081D43000851
:1042AC001D430008E74200081D4300081D43000899
:1042BC001D430008F94200081D4300081D43000877
:1042CC001D4300080B4300087B681B68DA687B6899
:1042DC001B6822F40072DA601BE07B681B68DA68EA
:1042EC007B681B6822F48062DA6012E07B681B68D2
:1042FC00DA687B681B6822F40062DA6009E07B688C
:10430C001B68DA687B681B6822F48052DA6000E074
:10431C0000BF7B681B6800223968184603F04EF911
:10432C007B681B681D4A934217D17B681B681A6A0D
:10433C0041F211131340002B0FD17B681B681A6AD2
:10434C0040F244431340002B07D17B681B685A6C26
:10435C007B681B6822F400425A647B681B681A6AEB
:10436C0041F211131340002B0FD17B681B681A6AA2
:10437C0040F244431340002B07D17B681B681A683A
:10438C007B681B6822F001021A607B68012283F8AB
:10439C003D20002318460837BD4680BD002C014047
:1043AC0080B582B000AF78607B68002B01D101230F
:1043BC001DE07B6893F83D30DBB2002B06D17B68A7
:1043CC00002283F83C20786800F045F87B680222D4
:1043DC0083F83D207B681A687B68043319461046C5
:1043EC0002F097FC7B68012283F83D2000231846DD
:1043FC000837BD4680BD80B582B000AF78607B6861
:10440C00022283F83D207B681B681A6A41F2111363
:10441C001340002B0FD17B681B681A6A40F244438F
:10442C001340002B07D17B681B681A687B681B68DC
:10443C0022F001021A60786800F016F87B680022FE
:10444C0083F83D207B68002283F83C20002318462B
:10445C000837BD4680BD80B483B000AF786000BF24
:10446C000C37BD4680BC704780B483B000AF786019
:10447C0000BF0C37BD4680BC704780B582B000AF22
:10448C00786039607B681B6801223968184603F034
:10449C0095F87B681B680C4A934207D17B681B68B4
:1044AC005A6C7B681B6842F400425A647B681B6838
:1044BC001A687B681B6842F001021A6000231846D8
:1044CC000837BD4680BD00BF002C014080B582B0CE
:1044DC0000AF786039607B681B6800223968184629
:1044EC0003F06CF87B681B681D4A934217D17B68FC
:1044FC001B681A6A41F211131340002B0FD17B6811
:10450C001B681A6A40F244431340002B07D17B68A6
:10451C001B685A6C7B681B6822F400425A647B68E7
:10452C001B681A6A41F211131340002B0FD17B68E0
:10453C001B681A6A40F244431340002B07D17B6876
:10454C001B681A687B681B6822F001021A607B6882
:10455C00012283F83D20002318460837BD4680BD54
:10456C00002C014080B582B000AF786039603B68A8
:10457C000C2B41D801A252F823F000BFBD45000816
:10458C00054600080546000805460008CF4500080A
:10459C00054600080546000805460008E1450008E8
:1045AC00054600080546000805460008F3450008C6
:1045BC007B681B68DA687B681B6842F00202DA6071
:1045CC001BE07B681B68DA687B681B6842F004029E
:1045DC00DA6012E07B681B68DA687B681B6842F063
:1045EC000802DA6009E07B681B68DA687B681B6884
:1045FC0042F01002DA6000E000BF7B681B68012209
:10460C003968184602F0DAFF7B681B680B4A934244
:10461C0007D17B681B685A6C7B681B6842F40042AC
:10462C005A647B681B681A687B681B6842F001023D
:10463C001A60002318460837BD4680BD002C014087
:10464C0080B582B000AF786039603B680C2B41D8E4
:10465C0001A252F823F000BF99460008E146000879
:10466C00E1460008E1460008AB460008E1460008B8
:10467C00E1460008E1460008BD460008E146000896
:10468C00E1460008E1460008CF4600087B681B683D
:10469C00DA687B681B6822F00202DA601BE07B6838
:1046AC001B68DA687B681B6822F00402DA6012E08F
:1046BC007B681B68DA687B681B6822F00802DA608A
:1046CC0009E07B681B68DA687B681B6822F01002C3
:1046DC00DA6000E000BF7B681B680022396818466E
:1046EC0002F06CFF7B681B681B4A934217D17B68F6
:1046FC001B681A6A41F211131340002B0FD17B680F
:10470C001B681A6A40F244431340002B07D17B68A4
:10471C001B685A6C7B681B6822F400425A647B68E5
:10472C001B681A6A41F211131340002B0FD17B68DE
:10473C001B681A6A40F244431340002B07D17B6874
:10474C001B681A687B681B6822F001021A60002340
:10475C0018460837BD4680BD002C014080B584B09A
:10476C0000AFF860B9607A607B80FB6893F83D30ED
:10477C00DBB2022B01D10223BCE0FB6893F83D3085
:10478C00DBB2012B0BD17B68002B04D17B88002B77
:10479C0001D00123AEE0FB68022283F83D20BB6808
:1047AC000C2B00F2898001A252F823F0ED4700088F
:1047BC00C5480008C5480008C5480008234800083B
:1047CC00C5480008C5480008C548000859480008F5
:1047DC00C5480008C5480008C54800088F480008AF
:1047EC00FB685B6A454A9A62FB685B6A444A1A63D7
:1047FC00FB68586A7968FB681B6834331A467B88F7
:10480C00FCF7EAF9FB681B68DA68FB681B6842F482
:10481C000072DA6051E0FB689B6A384A9A62FB6866
:10482C009B6A374A1A63FB68986A7968FB681B684D
:10483C0038331A467B88FCF7CFF9FB681B68DA68BB
:10484C00FB681B6842F48062DA6036E0FB68DB6A66
:10485C002A4A9A62FB68DB6A294A1A63FB68D86A9F
:10486C007968FB681B683C331A467B88FCF7B4F903
:10487C00FB681B68DA68FB681B6842F40062DA604C
:10488C001BE0FB681B6B1D4A9A62FB681B6B1C4A86
:10489C001A63FB68186B7968FB681B6840331A460F
:1048AC007B88FCF799F9FB681B68DA68FB681B6866
:1048BC0042F48052DA6000E000BFFB681B68012202
:1048CC00B968184602F07AFEFB681B680D4A9342E1
:1048DC0007D1FB681B685A6CFB681B6842F40042EA
:1048EC005A64FB681B681A68FB681B6842F001027B
:1048FC001A60002318461037BD4680BDF76B0008C0
:10490C00D36B0008002C014080B582B000AF7860FA
:10491C0039603B680C2B41D801A252F823F000BF40
:10492C0061490008A9490008A9490008A9490008DB
:10493C0073490008A9490008A9490008A9490008B9
:10494C0085490008A9490008A9490008A949000897
:10495C00974900087B681B68DA687B681B6822F43F
:10496C000072DA601BE07B681B68DA687B681B6886
:10497C0022F48062DA6012E07B681B68DA687B687C
:10498C001B6822F40062DA6009E07B681B68DA6855
:10499C007B681B6822F48052DA6000E000BF7B6801
:1049AC001B6800223968184602F008FE7B681B68F9
:1049BC001D4A934217D17B681B681A6A41F2111386
:1049CC001340002B0FD17B681B681A6A40F24443DA
:1049DC001340002B07D17B681B685A6C7B681B68E3
:1049EC0022F400425A647B681B681A6A41F2111364
:1049FC001340002B0FD17B681B681A6A40F24443AA
:104A0C001340002B07D17B681B681A687B681B68F6
:104A1C0022F001021A607B68012283F83D200023FA
:104A2C0018460837BD4680BD002C014080B582B0C9
:104A3C0000AF78607B68002B01D101231DE07B68FF
:104A4C0093F83D30DBB2002B06D17B68002283F853
:104A5C003C20786800F045F87B68022283F83D2002
:104A6C007B681A687B6804331946104602F051F9CA
:104A7C007B68012283F83D20002318460837BD4689
:104A8C0080BD80B582B000AF78607B68022283F86D
:104A9C003D207B681B681A6A41F211131340002BEE
:104AAC000FD17B681B681A6A40F244431340002BF9
:104ABC0007D17B681B681A687B681B6822F00102AF
:104ACC001A60786800F016F87B68002283F83D20A5
:104ADC007B68002283F83C20002318460837BD462B
:104AEC0080BD80B483B000AF786000BF0C37BD468A
:104AFC0080BC704780B483B000AF786000BF0C37C7
:104B0C00BD4680BC704780B582B000AF786039601C
:104B1C007B681B6801223968184602F04FFD7B68E0
:104B2C001B681A687B681B6842F001021A6000233C
:104B3C0018460837BD4680BD80B582B000AF78609E
:104B4C0039607B681B6800223968184602F036FD14
:104B5C007B681B681A6A41F211131340002B0FD1AA
:104B6C007B681B681A6A40F244431340002B07D140
:104B7C007B681B681A687B681B6822F001021A604C
:104B8C00002318460837BD4680BD80B582B000AF03
:104B9C00786039603B680C2B40D801A252F823F0A6
:104BAC00E14B0008294C0008294C0008294C00084E
:104BBC00F34B0008294C0008294C0008294C00082C
:104BCC00054C0008294C0008294C0008294C000809
:104BDC00174C00087B681B68DA687B681B6842F01E
:104BEC000202DA601BE07B681B68DA687B681B6872
:104BFC0042F00402DA6012E07B681B68DA687B68BA
:104C0C001B6842F00802DA6009E07B681B68DA680E
:104C1C007B681B6842F01002DA6000E000BF7B6822
:104C2C001B6801223968184602F0C8FC7B681B68B7
:104C3C001A687B681B6842F001021A600023184650
:104C4C000837BD4680BD80B582B000AF7860396052
:104C5C003B680C2B40D801A252F823F09D4C000865
:104C6C00E54C0008E54C0008E54C0008AF4C00088A
:104C7C00E54C0008E54C0008E54C0008C14C000868
:104C8C00E54C0008E54C0008E54C0008D34C000846
:104C9C007B681B68DA687B681B6822F00202DA60AA
:104CAC001BE07B681B68DA687B681B6822F00402D7
:104CBC00DA6012E07B681B68DA687B681B6822F09C
:104CCC000802DA6009E07B681B68DA687B681B689D
:104CDC0022F01002DA6000E000BF7B681B68002243
:104CEC003968184602F06AFC7B681B681A6A41F244
:104CFC0011131340002B0FD17B681B681A6A40F20A
:104D0C0044431340002B07D17B681B681A687B68EF
:104D1C001B6822F001021A60002318460837BD46B2
:104D2C0080BD80B584B000AFF860B9607A607B80DC
:104D3C00FB6893F83D30DBB2022B01D10223B0E0CB
:104D4C00FB6893F83D30DBB2012B0BD17B68002B59
:104D5C0004D17B88002B01D00123A2E0FB68022246
:104D6C0083F83D20BB680C2B00F28A8001A252F81C
:104D7C0023F000BFB54D00088D4E00088D4E000885
:104D8C008D4E0008EB4D00088D4E00088D4E00082E
:104D9C008D4E0008214E00088D4E00088D4E0008E7
:104DAC008D4E0008574E0008FB685B6A3F4A9A62BA
:104DBC00FB685B6A3E4A1A63FB68586AFB681B68AF
:104DCC00343319467A687B88FBF706FFFB681B684F
:104DDC00DA68FB681B6842F40072DA6051E0FB6829
:104DEC009B6A324A9A62FB689B6A314A1A63FB6877
:104DFC00986AFB681B68383319467A687B88FBF71E
:104E0C00EBFEFB681B68DA68FB681B6842F4806287
:104E1C00DA6036E0FB68DB6A244A9A62FB68DB6A7C
:104E2C00234A1A63FB68D86AFB681B683C33194633
:104E3C007A687B88FBF7D0FEFB681B68DA68FB6836
:104E4C001B6842F40062DA601BE0FB681B6B174ABC
:104E5C009A62FB681B6B164A1A63FB68186BFB683B
:104E6C001B68403319467A687B88FBF7B5FEFB68F4
:104E7C001B68DA68FB681B6842F48052DA6000E059
:104E8C0000BFFB681B680122B968184602F096FB4C
:104E9C00FB681B681A68FB681B6842F001021A6009
:104EAC00002318461037BD4680BD00BF676C000854
:104EBC00D36B000880B582B000AF786039603B6876
:104ECC000C2B41D801A252F823F000BF0D4F000863
:104EDC00554F0008554F0008554F00081F4F00084C
:104EEC00554F0008554F0008554F0008314F00082A
:104EFC00554F0008554F0008554F0008434F000808
:104F0C007B681B68DA687B681B6822F40072DA60C5
:104F1C001BE07B681B68DA687B681B6822F4806284
:104F2C00DA6012E07B681B68DA687B681B6822F425
:104F3C000062DA6009E07B681B68DA687B681B68D2
:104F4C0022F48052DA6000E000BF7B681B6800220C
:104F5C003968184602F032FB7B681B681A6A41F20A
:104F6C0011131340002B0FD17B681B681A6A40F297
:104F7C0044431340002B07D17B681B681A687B687D
:104F8C001B6822F001021A607B68012283F83D2025
:104F9C00002318460837BD4680BD80B582B000AFEF
:104FAC00786039607B68002B01D101232DE07B6890
:104FBC0093F83D30DBB2002B06D17B68002283F8DE
:104FCC003C20786800F055F87B68022283F83D207D
:104FDC007B681A687B6804331946104601F099FE09
:104FEC007B681B681A687B681B6822F008021A60D1
:104FFC007B681B6819687B681B683A680A431A60EF
:10500C007B68012283F83D20002318460837BD46F3
:10501C0080BD80B582B000AF78607B68022283F8D7
:10502C003D207B681B681A6A41F211131340002B58
:10503C000FD17B681B681A6A40F244431340002B63
:10504C0007D17B681B681A687B681B6822F0010219
:10505C001A60786800F016F87B68002283F83D200F
:10506C007B68002283F83C20002318460837BD4695
:10507C0080BD80B483B000AF786000BF0C37BD46F4
:10508C0080BC704780B483B000AF786000BF0C3731
:10509C00BD4680BC704780B582B000AF7860396087
:1050AC007B681B6801220021184602F087FA7B6896
:1050BC001B6801220421184602F080FA7B681B68E9
:1050CC00074A934207D17B681B685A6C7B681B6844
:1050DC0042F400425A64002318460837BD4680BD8E
:1050EC00002C014080B582B000AF786039607B68DD
:1050FC001B6800220021184602F060FA7B681B68CE
:10510C0000220421184602F059FA7B681B681C4ADD
:10511C00934217D17B681B681A6A41F21113134032
:10512C00002B0FD17B681B681A6A40F24443134072
:10513C00002B07D17B681B685A6C7B681B6822F4B8
:10514C0000425A647B681B681A6A41F211131340BF
:10515C00002B0FD17B681B681A6A40F24443134042
:10516C00002B07D17B681B681A687B681B6822F0D0
:10517C0001021A60002318460837BD4680BD00BFE7
:10518C00002C014080B582B000AF786039607B683C
:10519C001B68DA687B681B6842F00202DA607B6885
:1051AC001B68DA687B681B6842F00402DA607B6873
:1051BC001B6801220021184602F000FA7B681B686C
:1051CC0001220421184602F0F9F97B681B68084A91
:1051DC00934207D17B681B685A6C7B681B6842F44E
:1051EC0000425A64002318460837BD4680BD00BFF4
:1051FC00002C014080B582B000AF786039607B68CC
:10520C001B68DA687B681B6822F00202DA607B6834
:10521C001B68DA687B681B6822F00402DA607B6822
:10522C001B6800220021184602F0C8F97B681B6835
:10523C0000220421184602F0C1F97B681B681C4A45
:10524C00934217D17B681B681A6A41F21113134001
:10525C00002B0FD17B681B681A6A40F24443134041
:10526C00002B07D17B681B685A6C7B681B6822F487
:10527C0000425A647B681B681A6A41F2111313408E
:10528C00002B0FD17B681B681A6A40F24443134011
:10529C00002B07D17B681B681A687B681B6822F09F
:1052AC0001021A60002318460837BD4680BD00BFB6
:1052BC00002C014080B586B000AF786039600023C7
:1052CC007B6100233B610023FB607B68002B01D1D9
:1052DC00012381E07B6893F83D30DBB2002B06D1D3
:1052EC007B68002283F83C20786800F0A9F87B6882
:1052FC00022283F83D207B681B689A687B681B68D8
:10530C0022F007029A607B681A687B68043319469E
:10531C00104601F0FEFC7B681B689B687B617B6818
:10532C001B689B693B617B681B681B6AFB603B6865
:10533C001B687A6913437B613B6923F4407323F048
:10534C0003033B613B689A683B689B691B021343F0
:10535C003A6913433B613B6923F4406323F00C032C
:10536C003B613B6923F4704323F0F0033B613B68E2
:10537C00DA683B68DB691B0213433A6913433B61F0
:10538C003B681B691A013B681B6A1B0313433A6990
:10539C0013433B61FB6823F02203FB60FB6823F0A3
:1053AC008803FB603B685A683B685B691B011343CD
:1053BC00FA681343FB607B681B687A699A607B68A8
:1053CC001B683A699A617B681B68FA681A627B6889
:1053DC00012283F83D20002318461837BD4680BDB6
:1053EC0080B582B000AF78607B68022283F83D20E4
:1053FC007B681B681A6A41F211131340002B0FD102
:10540C007B681B681A6A40F244431340002B07D197
:10541C007B681B681A687B681B6822F001021A60A3
:10542C00786800F016F87B68002283F83D207B68D2
:10543C00002283F83C20002318460837BD4680BD67
:10544C0080B483B000AF786000BF0C37BD4680BC21
:10545C00704780B483B000AF786000BF0C37BD4696
:10546C0080BC704780B582B000AF786039603B6813
:10547C00002B02D0042B08D00FE07B681B680122A4
:10548C000021184602F09AF816E07B681B6801228E
:10549C000421184602F092F80EE07B681B6801228A
:1054AC000021184602F08AF87B681B68012204214F
:1054BC00184602F083F800BF7B681B681A687B688B
:1054CC001B6842F001021A60002318460837BD46DB
:1054DC0080BD80B582B000AF786039603B68002B2E
:1054EC0002D0042B08D00FE07B681B68002200213F
:1054FC00184602F063F816E07B681B680022042152
:10550C00184602F05BF80EE07B681B680022002155
:10551C00184602F053F87B681B68002204211846D9
:10552C0002F04CF800BF7B681B681A6A41F2111339
:10553C001340002B0FD17B681B681A6A40F244435E
:10554C001340002B07D17B681B681A687B681B68AB
:10555C0022F001021A60002318460837BD4680BDB0
:10556C0080B582B000AF786039603B68002B02D008
:10557C00042B10D01FE07B681B6801220021184609
:10558C0002F01CF87B681B68DA687B681B6842F0C9
:10559C000202DA602EE07B681B68012204211846A7
:1055AC0002F00CF87B681B68DA687B681B6842F0B9
:1055BC000402DA601EE07B681B6801220021184699
:1055CC0001F0FCFF7B681B6801220421184601F0E6
:1055DC00F5FF7B681B68DA687B681B6842F0020287
:1055EC00DA607B681B68DA687B681B6842F004022F
:1055FC00DA6000BF7B681B681A687B681B6842F026
:10560C0001021A60002318460837BD4680BD80B5DC
:10561C0082B000AF786039603B68002B0FD17B689B
:10562C001B6800220021184601F0C8FF7B681B682C
:10563C00DA687B681B6822F00202DA6030E03B68B3
:10564C00042B0FD17B681B6800220421184601F043
:10565C00B5FF7B681B68DA687B681B6822F0040264
:10566C00DA601DE07B681B6800220021184601F0FF
:10567C00A5FF7B681B6800220421184601F09EFFE1
:10568C007B681B68DA687B681B6822F00202DA60B0
:10569C007B681B68DA687B681B6822F00402DA609E
:1056AC007B681B681A6A41F211131340002B0FD14F
:1056BC007B681B681A6A40F244431340002B07D1E5
:1056CC007B681B681A687B681B6822F001021A60F1
:1056DC007B68012283F83D20002318460837BD461D
:1056EC0080BD80B584B000AFF860B9607A603B6073
:1056FC00FB6893F83D30DBB2022B01D10223BCE0F6
:10570C00FB6893F83D30DBB2012B0ED17B68002B8C
:10571C0002D03B68002B04D13B8B002B01D0012322
:10572C00ABE0FB68022283F83D20BB68042B2ED033
:10573C00182B56D0002B00D09EE0FB685B6A514AB8
:10574C009A62FB685B6A504A1A63FB68586AFB688A
:10575C001B68343319467A683B8BFBF73DFAFB68C0
:10576C001B68DA68FB681B6842F40072DA60FB683D
:10577C001B681A68FB681B6842F001021A60FB6820
:10578C001B6801220021184601F018FF74E0FB6829
:10579C009B6A3C4A9A62FB689B6A3B4A1A63FB68A9
:1057AC00986AFB681B68383319463A683B8BFBF7E1
:1057BC0013FAFB681B68DA68FB681B6842F48062AA
:1057CC00DA60FB681B681A68FB681B6842F0010210
:1057DC001A60FB681B6801220421184601F0EEFEDA
:1057EC004AE0FB685B6A274A9A62FB685B6A264A56
:1057FC001A63FB68586AFB681B68343319467A686D
:10580C003B8BFBF7E9F9FB689B6A1E4A9A62FB68C3
:10581C009B6A1D4A1A63FB68986AFB681B683833DD
:10582C0019463A683B8BFBF7D7F9FB681B681A687B
:10583C00FB681B6842F001021A60FB681B680122BE
:10584C000021184601F0BAFEFB681B6801220421F6
:10585C00184601F0B3FEFB681B68DA68FB681B682E
:10586C0042F40072DA60FB681B68DA68FB681B683C
:10587C0042F48062DA6000BF002318461037BD4640
:10588C0080BD00BF676C0008D36B000880B582B088
:10589C0000AF786039603B68002B0FD17B681B68C8
:1058AC0000220021184601F089FE7B681B68DA682B
:1058BC007B681B6822F40072DA6030E03B68042BD2
:1058CC000FD17B681B6800220421184601F076FE7C
:1058DC007B681B68DA687B681B6822F48062DA607C
:1058EC001DE07B681B6800220021184601F066FE53
:1058FC007B681B6800220421184601F05FFE7B6860
:10590C001B68DA687B681B6822F40072DA607B68BB
:10591C001B68DA687B681B6822F48062DA607B683B
:10592C001B681A6A41F211131340002B0FD17B68CC
:10593C001B681A6A40F244431340002B07D17B6862
:10594C001B681A687B681B6822F001021A607B686E
:10595C00012283F83D20002318460837BD4680BD40
:10596C0080B582B000AF78607B681B681B6903F060
:10597C000203022B22D17B681B68DB6803F0020355
:10598C00022B1BD17B681B686FF002021A617B68CB
:10599C0001221A777B681B689B6903F00303002BB9
:1059AC0003D0786801F09DF805E0786801F090F874
:1059BC00786801F09FF87B6800221A777B681B6877
:1059CC001B6903F00403042B22D17B681B68DB6882
:1059DC0003F00403042B1BD17B681B686FF00402DB
:1059EC001A617B6802221A777B681B689B6903F437
:1059FC004073002B03D0786801F073F805E07868E9
:105A0C0001F066F8786801F075F87B6800221A7767
:105A1C007B681B681B6903F00803082B22D17B6889
:105A2C001B68DB6803F00803082B1BD17B681B6821
:105A3C006FF008021A617B6804221A777B681B6876
:105A4C00DB6903F00303002B03D0786801F049F8FD
:105A5C0005E0786801F03CF8786801F04BF87B6859
:105A6C0000221A777B681B681B6903F01003102B4C
:105A7C0022D17B681B68DB6803F01003102B1BD151
:105A8C007B681B686FF010021A617B6808221A771A
:105A9C007B681B68DB6903F44073002B03D07868C8
:105AAC0001F01FF805E0786801F012F8786801F051
:105ABC0021F87B6800221A777B681B681B6903F04E
:105ACC000103012B0ED17B681B68DB6803F001031B
